:100000000C94BC000C94D9000C94D9000C94D90029
:100010000C94D9000C94D9000C94D9000C94D900FC
:100020000C94D9000C94D9000C94D9000C94D900EC
:100030000C94D9000C94D9000C94D9000C94D900DC
:100040000C94D9000C94D9000C94D9000C94D900CC
:100050000C94D9000C94D9000C94D9000C94D900BC
:100060000C94D9000C94D9000C94D9000C94D900AC
:100070000C94D9000C94D9000C94D9000C94D9009C
:100080000C94D9000C94D9000C94D9000C94D9008C
:100090000C94D9000C94D9000C94D9000C94D9007C
:1000A0000C94D9000C94D9000C94D9000C94D9006C
:1000B0000C94D9000C94D9000C94D9000C94D9005C
:1000C0000C94D9000C94D9000C94D9000C94D9004C
:1000D0000C94D9000C94D9000C94D9000C94D9003C
:1000E0000C94D9000C94D9000C94D9000C94D9002C
:1000F0000C94D9000C94D9000C94D9000C94D9001C
:100100000C94D9000C94D9000C94D9000C94D9000B
:100110000C94D9000C94D9000C94D9000C94D900FB
:100120000C94D9000C94D9000C94D9000C94D900EB
:100130000C94D9000C94D9000C94D9000C94D900DB
:100140000C94D9000C94D9000C94D9000C94D900CB
:100150000C94D9000C94D9000C94D9000C94D900BB
:100160000C94D9000C94D9000C94D9000C94D900AB
:100170000C94D9000C94D90011241FBECFEFCDBF31
:10018000D7E2DEBF13E2A0E0B0E2E6E0FCE002C0AE
:1001900005900D92AA33B107D9F723E2AAE3B3E29F
:1001A00001C01D92A63FB207E1F70E9465050C94BD
:1001B00001060C94000088ED84BF82E0809350001B
:1001C0008091510081FFFCCF88ED84BF81E0809356
:1001D000400008958BE48093520080915000886025
:1001E000809350008091510083FFFCCF88ED84BF45
:1001F00083E080934000089590E89093610690E436
:10020000909362061092B30993E09093B509882306
:1002100029F08CEA8093B60981E904C083E88093D1
:10022000B60980ED8093B70988E18093B4090895F9
:100230009091B10995FFFCCF8093B00980E090E0E8
:100240000895CF93C82F8A3019F48DE00E941801C9
:100250008C2FCF910C9418018091B10987FFFCCFAE
:100260008091B00908958F929F92AF92BF92EF92C2
:10027000FF920F931F93CF93DF9300D000D0CDB7A1
:10028000DEB7E0913C23F0913D23339641E453E205
:10029000CF010397DC012C91CA010397DC012C9359
:1002A000CF010297DC012C91CA010297DC012C934B
:1002B000CF010197DC012C91CA010197DC012C933D
:1002C0008081DA018C9334964C5F5F4FB3E2413505
:1002D0005B07F1F6E1E5F3E294E0892E912CA12C85
:1002E000B12C9E012F5F3F4F40E050E0BA018F01DB
:1002F000075011097801E40EF51ED701FC90D901D1
:10030000FD929D014F5F5F4F6F4F7F4F443051050E
:100310006105710579F7B501A4014370552766277A
:100320007727452B462B472B51F529814C816A8134
:1003300070E0635E7D4DDB011C916B8170E0635E5C
:100340007D4DDB013C913A8350E0435E5D4DDA0127
:100350003C913B8330E0235E3D4DD9012C912C83B1
:10036000B501A40182E076956795579547958A95E2
:10037000D1F7425E5F4DDA012C91212729839F013D
:1003800023503109AF0143515109DA014C91598190
:100390004527D9014C932F5F3F4FAF01425151097F
:1003A000DA014C915A814527D9014C932F5F3F4F79
:1003B000AF0141515109DA014C915B814527D901C7
:1003C0004C932F503109D9012C913C812327208354
:1003D000BFEF8B1A9B0AAB0ABB0A34968CE28816D5
:1003E0009104A104B10409F07CCF2496CDBFDEBFF7
:1003F000DF91CF911F910F91FF90EF90BF90AF9041
:100400009F908F9008951F93CF93DF936091EE2379
:100410007091EF2320E1829FC001112440E050E061
:10042000825C9C4DDC01A40FB51F20E030E0FB0195
:10043000E20FF31FED01C20FD31F1081C8811C27EB
:1004400010832F5F3F4F2430310589F76C5F7F4F5A
:100450004C5F5F4F4031510529F7DF91CF911F91DC
:1004600008952091EE233091EF2344E080E090E066
:10047000D901A80FB91FEC91F0E0E35EFD4D50816A
:100480005C9304968031910599F741502F5F3F4F5F
:100490004111ECCF0895E091EE23F091EF2381819B
:1004A00095819183918595839585918785878281B3
:1004B00092859283828786819685968386878381BB
:1004C00097859383938597879781938787830895EB
:1004D000282F221F2227221F9BE1299F902D1124C4
:1004E000880F892708952091EE233091EF2344E06F
:1004F00080E090E0D901A80FB91FEC91F0E0E35E35
:10050000FE4D50815C9304968031910599F74150DE
:100510002F5F3F4F4111ECCF0895E091EE23F09112
:10052000EF23858591859587958191879181958325
:100530008183828192859283828786819685968344
:100540008687838197819383938597839785938704
:10055000878708957F928F929F92AF92BF92CF929A
:10056000DF92EF92FF920F931F93CF93DF9380E080
:100570000E940302AA24A3940E9431020E944B020B
:10058000E090EE23F090EF23E7012396912CF70102
:1005900080806E01F2E0CF1AD108F60180818825B3
:1005A000FE01B2908F019881B926B8260E94680298
:1005B00088258B25F7018083F6017080F801808102
:1005C00087250E94680287258B25F6018083F80124
:1005D000D08088818D250E9468028D258B25F801A9
:1005E00080831881812F88250E94680281278B25AE
:1005F00088839394F4E0EF0EF11C249684E0981223
:10060000C6CF8A2D0E940302A394EAE0AE12B4CFB3
:100610000E9431020E944B028AE0DF91CF911F912C
:100620000F91FF90EF90DF90CF90BF90AF909F9091
:100630008F907F900C9403022F923F924F925F9283
:100640006F927F928F929F92AF92BF92CF92DF92E2
:10065000EF92FF920F931F93CF93DF93CDB7DEB747
:100660002897CDBFDEBF8AE00E94030229E0B22EA8
:100670000E948D020E9473028B2D0E940302C09083
:10068000EE23D090EF23760100E010E0F7016081C7
:10069000C601800F911F8F839887FC017181A28012
:1006A0006380862F6D837E830E946802282E0E94BD
:1006B0006802582F5C830E946802782E7E81872F03
:1006C0000E946802982F9B830E946802382E0E9425
:1006D0006802882E8A2D0E946802482F4A830E9451
:1006E0006802382F39830E946802982E862D0E9456
:1006F0006802482E0E946802582E0E9468025C819F
:10070000252F222527259B81292728253981232745
:10071000292528277E8127272A252625F7012083BA
:100720009725932598254A819427992595259827DB
:100730006D8196279A259625EF81F8859183672705
:10074000272D252728252427232729252425282741
:10075000262526272283972D9225932598259925AE
:100760009425952598279A25962793830C5F1F4FEC
:10077000F4E0EF0EF11C0031110509F087CFBA94B7
:1007800009F076CF0E948D020E94730280E02896C5
:10079000CDBFDEBFDF91CF911F910F91FF90EF9002
:1007A000DF90CF90BF90AF909F908F907F906F9091
:1007B0005F904F903F902F900C94030220E1FB013B
:1007C0003191BF01FC013193CF012150C1F7089550
:1007D000A0913A23B0913B23FC0180E02D919081C0
:1007E000922791938F5F8031C9F708950F931F93DC
:1007F000CF93DF938B01EA01BC01CA010E94DE03A3
:10080000C093EE23D093EF2300933C2310933D231A
:100810000E943301DF91CF911F910F910C94AA0296
:100820000F931F93CF93DF938B01EA01BC01CA01A1
:100830000E94DE03C093EE23D093EF2300933C236A
:1008400010933D230E943301DF91CF911F910F91AF
:100850000C941C038F929F92BF92CF92DF92EF92E3
:10086000FF920F931F93CF93DF93CDB7DEB72697F9
:10087000CDBFDEBF4C016B01822F8F70B82EC4013B
:100880002B833C834D835E830E94DE038092EE23A4
:100890009092EF232B813C814D815E8101151105E2
:1008A00051F000933C2310933D230E9433015E815D
:1008B0004D813C812B81E114F10421F0E0923A2337
:1008C000F0923B23E12CF12CB6016E0D7F1D8401CB
:1008D0000E0D1F1DC701A0E0B0E082179307A4070B
:1008E000B50700F5CB012B833C834D835E83698381
:1008F0007A830E94E80369817A81C8010E94DE033D
:100900000093EE231093EF230E94AA0200933A2350
:1009100010933B23E0E1EE0EF11C5E814D813C81A2
:100920002B81D2CFBB2019F1C8010E94DE038B2D91
:1009300090E040E150E0481B590B60E070E0800F10
:10094000911F0E94CD050093EE231093EF2326966E
:10095000CDBFDEBFDF91CF911F910F91FF90EF9040
:10096000DF90CF90BF909F908F900C94AA02269614
:10097000CDBFDEBFDF91CF911F910F91FF90EF9020
:10098000DF90CF90BF909F908F9008956F927F924D
:100990009F92AF92BF92CF92DF92EF92FF920F930E
:1009A0001F93CF93DF9300D000D0CDB7DEB73C01CB
:1009B0006B01822F8F70982EC30129833A834B835A
:1009C0005C830E94DE036092EE237092EF23298104
:1009D0003A814B815C810115110551F000933C2354
:1009E00010933D230E9433015C814B813A81298120
:1009F000E114F10421F0E0923A23F0923B23E12C40
:100A0000F12C5601AE0CBF1C83010E0D1F1DC7013A
:100A1000A0E0B0E082179307A407B507E8F4B5019A
:100A2000C80129833A834B835C830E94DE030093D1
:100A3000EE231093EF230E941C03C8010E94E803D9
:100A4000A0923A23B0923B23E0E1EE0EF11C5C81D0
:100A50004B813A812981D5CF992031F1B501C80167
:100A60000E94DE03892D90E040E150E0481B590BC5
:100A700060E070E0800F911F0E94CD050093EE238F
:100A80001093EF232496CDBFDEBFDF91CF911F914E
:100A90000F91FF90EF90DF90CF90BF90AF909F901D
:100AA0007F906F900C941C032496CDBFDEBFDF9126
:100AB000CF911F910F91FF90EF90DF90CF90BF905B
:100AC000AF909F907F906F900895CF93DF93CDB7B5
:100AD000DEB7A097CDBFDEBF0E94DB0080E00E94A2
:100AE000FC0080E090E28093F2239093F3232FEFB9
:100AF00083EC99E0215080409040E1F700C0000075
:100B00008DE193E20E94D4050E94EA0081E00E94F8
:100B1000FC008BE293E20E94D4058FEF8093810664
:100B200081E0809384067E01E1E2EE0EF11CDD247B
:100B3000D3940E942C018111FCCF8E010F5E1F4FB8
:100B40000E942C01F80181938F01EE15FF05C1F77A
:100B500010928406AE014F5F5F4F6EE070E2CE01EF
:100B600041960E94F603D092840680E00E9418010C
:100B70008E010F5E1F4FF80181918F010E941801B5
:100B80000E151F05C1F7FFEF29EF80E0F15020405F
:100B90008040E1F700C00000CCCFDC0101C06D93C4
:100BA00041505040E0F708950F931F93CF93DF9388
:100BB000E091F223F091F323238121FF1BC0EC018C
:100BC00000E010E089916091F2237091F323DB0142
:100BD0001896ED91FC911997882331F00995892B8E
:100BE00089F30FEF1FEFEECF8AE00995892B11F4FF
:100BF000C80102C08FEF9FEFDF91CF911F910F913E
:060C00000895F894FFCFF7
:100C06000000000200000000210100000000313257
:100C16003334657374616573756E617072758D01B9
:100C2600020408102040801B366CD8AB4D9A2F5E0C
:100C3600BC63C697356AD4B37DFAEFC5913972E4C1
:100C4600D3BD61C29F254A943366CC831D3A74E8AE
:100C5600CB8D01020408102040801B366CD8AB4DAA
:100C66009A2F5EBC63C697356AD4B37DFAEFC591F9
:100C76003972E4D3BD61C29F254A943366CC831D85
:100C86003A74E8CB8D01020408102040801B366CB4
:100C9600D8AB4D9A2F5EBC63C697356AD4B37DFA3E
:100CA600EFC5913972E4D3BD61C29F254A9433667C
:100CB600CC831D3A74E8CB8D0102040810204080D5
:100CC6001B366CD8AB4D9A2F5EBC63C697356AD47B
:100CD600B37DFAEFC5913972E4D3BD61C29F254A4F
:100CE600943366CC831D3A74E8CB8D010204081058
:100CF6002040801B366CD8AB4D9A2F5EBC63C697DE
:100D0600356AD4B37DFAEFC5913972E4D3BD61C2B9
:100D16009F254A943366CC831D3A74E8CB52096A00
:100D2600D53036A538BF40A39E81F3D7FB7CE33987
:100D3600829B2FFF87348E4344C4DEE9CB547B94D9
:100D460032A6C2233DEE4C950B42FAC34E082EA1A5
:100D56006628D924B2765BA2496D8BD12572F8F646
:100D66006486689816D4A45CCC5D65B6926C7048AF
:100D760050FDEDB9DA5E154657A78D9D8490D8AB28
:100D8600008CBCD30AF7E45805B8B34506D02C1E30
:100D96008FCA3F0F02C1AFBD0301138A6B3A91118F
:100DA600414F67DCEA97F2CFCEF0B4E67396AC74A7
:100DB60022E7AD3585E2F937E81C75DF6E47F11A93
:100DC600711D29C5896FB7620EAA18BE1BFC563E57
:100DD6004BC6D279209ADBC0FE78CD5AF41FDDA827
:100DE600338807C731B11210592780EC5F60517FF5
:100DF600A919B54A0D2DE57A9F93C99CEFA0E03B52
:100E06004DAE2AF5B0C8EBBB3C83539961172B0452
:100E16007EBA77D626E169146355210C7D637C770B
:100E26007BF26B6FC53001672BFED7AB76CA82C9E2
:100E36007DFA5947F0ADD4A2AF9CA472C0B7FD931A
:100E460026363FF7CC34A5E5F171D8311504C72312
:100E5600C31896059A071280E2EB27B27509832C10
:100E66001A1B6E5AA0523BD6B329E32F8453D100E6
:100E7600ED20FCB15B6ACBBE394A4C58CFD0EFAA05
:100E8600FB434D338545F9027F503C9FA851A34053
:100E96008F929D38F5BCB6DA2110FFF3D2CD0C1334
:100EA600EC5F974417C4A77E3D645D197360814F5C
:100EB600DC222A908846EEB814DE5E0BDBE0323A7E
:100EC6000A4906245CC2D3AC629195E479E7C83737
:100ED6006D8DD54EA96C56F4EA657AAE08BA7825BA
:100EE6002E1CA6B4C6E8DD741F4BBD8B8A703EB5BA
:100EF600664803F60E613557B986C11D9EE1F8981E
:100F06001169D98E949B1E87E9CE5528DF8CA1895D
:100F16000DBFE6426841992D0FB054BB1652656C61
:100F26006F6A20496E7465726E6F0052656C6F6AE7
:0A0F36002045787465726E6F0000AC
:00000001FF
